{
  "_format": "hh-sol-artifact-1",
  "contractName": "MarketNoRewards",
  "sourceName": "src/tgUSD/Market/MarketNoRewards.sol",
  "abi": [
    {
      "inputs": [
        {
          "internalType": "address",
          "name": "_owner",
          "type": "address"
        },
        {
          "components": [
            {
              "internalType": "contract ITgUSD",
              "name": "tgUSD",
              "type": "address"
            },
            {
              "internalType": "contract IControlTower",
              "name": "controlTower",
              "type": "address"
            },
            {
              "internalType": "contract IIrCalculator",
              "name": "irCalculator",
              "type": "address"
            },
            {
              "internalType": "contract IERC20Metadata",
              "name": "collatToken",
              "type": "address"
            },
            {
              "internalType": "contract IPriceOracle",
              "name": "collatOracle",
              "type": "address"
            },
            {
              "internalType": "uint256",
              "name": "maxLTV",
              "type": "uint256"
            },
            {
              "internalType": "uint256",
              "name": "liquidationThreshold",
              "type": "uint256"
            },
            {
              "internalType": "uint256",
              "name": "maxMarketDebt",
              "type": "uint256"
            },
            {
              "internalType": "uint256",
              "name": "minimumLoan",
              "type": "uint256"
            }
          ],
          "internalType": "struct IMarketCore.MarketInit",
          "name": "_marketInit",
          "type": "tuple"
        }
      ],
      "stateMutability": "nonpayable",
      "type": "constructor"
    },
    {
      "inputs": [],
      "name": "MathOverflowedMulDiv",
      "type": "error"
    },
    {
      "inputs": [],
      "name": "NotIRMinter",
      "type": "error"
    },
    {
      "inputs": [],
      "name": "NotLiquidablePosition",
      "type": "error"
    },
    {
      "inputs": [
        {
          "internalType": "address",
          "name": "owner",
          "type": "address"
        }
      ],
      "name": "OwnableInvalidOwner",
      "type": "error"
    },
    {
      "inputs": [
        {
          "internalType": "address",
          "name": "account",
          "type": "address"
        }
      ],
      "name": "OwnableUnauthorizedAccount",
      "type": "error"
    },
    {
      "inputs": [],
      "name": "PositionDebtTooHigh",
      "type": "error"
    },
    {
      "inputs": [],
      "name": "PositionDebtTooLow",
      "type": "error"
    },
    {
      "inputs": [],
      "name": "PositionDebtZero",
      "type": "error"
    },
    {
      "inputs": [],
      "name": "TotalDebtTooHigh",
      "type": "error"
    },
    {
      "inputs": [],
      "name": "ZeroCollatAmount",
      "type": "error"
    },
    {
      "inputs": [],
      "name": "ZeroDebtAmount",
      "type": "error"
    },
    {
      "anonymous": false,
      "inputs": [
        {
          "indexed": true,
          "internalType": "address",
          "name": "previousOwner",
          "type": "address"
        },
        {
          "indexed": true,
          "internalType": "address",
          "name": "newOwner",
          "type": "address"
        }
      ],
      "name": "OwnershipTransferred",
      "type": "event"
    },
    {
      "inputs": [],
      "name": "DENOMINATOR",
      "outputs": [
        {
          "internalType": "uint256",
          "name": "",
          "type": "uint256"
        }
      ],
      "stateMutability": "view",
      "type": "function"
    },
    {
      "inputs": [],
      "name": "RAY",
      "outputs": [
        {
          "internalType": "uint256",
          "name": "",
          "type": "uint256"
        }
      ],
      "stateMutability": "view",
      "type": "function"
    },
    {
      "inputs": [],
      "name": "blockLastIRTimestamp",
      "outputs": [
        {
          "internalType": "uint256",
          "name": "",
          "type": "uint256"
        }
      ],
      "stateMutability": "view",
      "type": "function"
    },
    {
      "inputs": [
        {
          "internalType": "address",
          "name": "receiver",
          "type": "address"
        },
        {
          "internalType": "uint256",
          "name": "tgUSDToBorrow",
          "type": "uint256"
        }
      ],
      "name": "borrow",
      "outputs": [],
      "stateMutability": "nonpayable",
      "type": "function"
    },
    {
      "inputs": [],
      "name": "checkpointIR",
      "outputs": [],
      "stateMutability": "nonpayable",
      "type": "function"
    },
    {
      "inputs": [],
      "name": "collatOracle",
      "outputs": [
        {
          "internalType": "contract IPriceOracle",
          "name": "",
          "type": "address"
        }
      ],
      "stateMutability": "view",
      "type": "function"
    },
    {
      "inputs": [],
      "name": "collatToken",
      "outputs": [
        {
          "internalType": "contract IERC20Metadata",
          "name": "",
          "type": "address"
        }
      ],
      "stateMutability": "view",
      "type": "function"
    },
    {
      "inputs": [
        {
          "internalType": "address",
          "name": "",
          "type": "address"
        }
      ],
      "name": "collateralBalances",
      "outputs": [
        {
          "internalType": "uint256",
          "name": "",
          "type": "uint256"
        }
      ],
      "stateMutability": "view",
      "type": "function"
    },
    {
      "inputs": [],
      "name": "controlTower",
      "outputs": [
        {
          "internalType": "contract IControlTower",
          "name": "",
          "type": "address"
        }
      ],
      "stateMutability": "view",
      "type": "function"
    },
    {
      "inputs": [],
      "name": "debtIndex",
      "outputs": [
        {
          "internalType": "uint256",
          "name": "",
          "type": "uint256"
        }
      ],
      "stateMutability": "view",
      "type": "function"
    },
    {
      "inputs": [
        {
          "internalType": "address",
          "name": "_for",
          "type": "address"
        },
        {
          "internalType": "uint256",
          "name": "lpDeposited",
          "type": "uint256"
        },
        {
          "internalType": "bool",
          "name": "isStaked",
          "type": "bool"
        }
      ],
      "name": "deposit",
      "outputs": [],
      "stateMutability": "nonpayable",
      "type": "function"
    },
    {
      "inputs": [
        {
          "internalType": "address",
          "name": "_for",
          "type": "address"
        },
        {
          "internalType": "uint256",
          "name": "lpDeposited",
          "type": "uint256"
        },
        {
          "internalType": "uint256",
          "name": "debtBorrow",
          "type": "uint256"
        },
        {
          "internalType": "bool",
          "name": "isStaked",
          "type": "bool"
        }
      ],
      "name": "depositAndBorrow",
      "outputs": [],
      "stateMutability": "nonpayable",
      "type": "function"
    },
    {
      "inputs": [
        {
          "internalType": "address",
          "name": "account",
          "type": "address"
        }
      ],
      "name": "healthRatio",
      "outputs": [
        {
          "internalType": "uint256",
          "name": "",
          "type": "uint256"
        }
      ],
      "stateMutability": "view",
      "type": "function"
    },
    {
      "inputs": [],
      "name": "irCalculator",
      "outputs": [
        {
          "internalType": "contract IIrCalculator",
          "name": "",
          "type": "address"
        }
      ],
      "stateMutability": "view",
      "type": "function"
    },
    {
      "inputs": [],
      "name": "lastDebt",
      "outputs": [
        {
          "internalType": "uint256",
          "name": "",
          "type": "uint256"
        }
      ],
      "stateMutability": "view",
      "type": "function"
    },
    {
      "inputs": [],
      "name": "lastIR",
      "outputs": [
        {
          "internalType": "uint256",
          "name": "",
          "type": "uint256"
        }
      ],
      "stateMutability": "view",
      "type": "function"
    },
    {
      "inputs": [
        {
          "internalType": "address",
          "name": "account",
          "type": "address"
        },
        {
          "internalType": "uint256",
          "name": "tgUSDToRepay",
          "type": "uint256"
        },
        {
          "internalType": "contract ILiquidator",
          "name": "liquidator",
          "type": "address"
        }
      ],
      "name": "liquidate",
      "outputs": [],
      "stateMutability": "nonpayable",
      "type": "function"
    },
    {
      "inputs": [
        {
          "internalType": "address",
          "name": "account",
          "type": "address"
        }
      ],
      "name": "liquidationPrice",
      "outputs": [
        {
          "internalType": "uint256",
          "name": "",
          "type": "uint256"
        }
      ],
      "stateMutability": "view",
      "type": "function"
    },
    {
      "inputs": [],
      "name": "liquidationThreshold",
      "outputs": [
        {
          "internalType": "uint256",
          "name": "",
          "type": "uint256"
        }
      ],
      "stateMutability": "view",
      "type": "function"
    },
    {
      "inputs": [
        {
          "internalType": "address",
          "name": "account",
          "type": "address"
        }
      ],
      "name": "maxBorrowable",
      "outputs": [
        {
          "internalType": "uint256",
          "name": "",
          "type": "uint256"
        }
      ],
      "stateMutability": "view",
      "type": "function"
    },
    {
      "inputs": [],
      "name": "maxLTV",
      "outputs": [
        {
          "internalType": "uint256",
          "name": "",
          "type": "uint256"
        }
      ],
      "stateMutability": "view",
      "type": "function"
    },
    {
      "inputs": [],
      "name": "maxMarketDebt",
      "outputs": [
        {
          "internalType": "uint256",
          "name": "",
          "type": "uint256"
        }
      ],
      "stateMutability": "view",
      "type": "function"
    },
    {
      "inputs": [],
      "name": "minimumLoan",
      "outputs": [
        {
          "internalType": "uint256",
          "name": "",
          "type": "uint256"
        }
      ],
      "stateMutability": "view",
      "type": "function"
    },
    {
      "inputs": [],
      "name": "owner",
      "outputs": [
        {
          "internalType": "address",
          "name": "",
          "type": "address"
        }
      ],
      "stateMutability": "view",
      "type": "function"
    },
    {
      "inputs": [],
      "name": "pendingInterests",
      "outputs": [
        {
          "internalType": "uint256",
          "name": "",
          "type": "uint256"
        }
      ],
      "stateMutability": "view",
      "type": "function"
    },
    {
      "inputs": [
        {
          "internalType": "address",
          "name": "account",
          "type": "address"
        }
      ],
      "name": "positionDebt",
      "outputs": [
        {
          "internalType": "uint256",
          "name": "",
          "type": "uint256"
        }
      ],
      "stateMutability": "view",
      "type": "function"
    },
    {
      "inputs": [
        {
          "internalType": "address",
          "name": "",
          "type": "address"
        }
      ],
      "name": "positionDebtIndex",
      "outputs": [
        {
          "internalType": "uint256",
          "name": "",
          "type": "uint256"
        }
      ],
      "stateMutability": "view",
      "type": "function"
    },
    {
      "inputs": [],
      "name": "renounceOwnership",
      "outputs": [],
      "stateMutability": "nonpayable",
      "type": "function"
    },
    {
      "inputs": [
        {
          "internalType": "address",
          "name": "account",
          "type": "address"
        },
        {
          "internalType": "uint256",
          "name": "tgUSDToRepay",
          "type": "uint256"
        },
        {
          "internalType": "address",
          "name": "callerZapper",
          "type": "address"
        }
      ],
      "name": "repay",
      "outputs": [],
      "stateMutability": "nonpayable",
      "type": "function"
    },
    {
      "inputs": [
        {
          "internalType": "contract ILiquidator",
          "name": "liquidator",
          "type": "address"
        }
      ],
      "name": "selfLiquidate",
      "outputs": [],
      "stateMutability": "nonpayable",
      "type": "function"
    },
    {
      "inputs": [
        {
          "internalType": "contract IPriceOracle",
          "name": "_collatOracle",
          "type": "address"
        }
      ],
      "name": "setCollatOracle",
      "outputs": [],
      "stateMutability": "nonpayable",
      "type": "function"
    },
    {
      "inputs": [
        {
          "internalType": "uint256",
          "name": "_liquidationThreshold",
          "type": "uint256"
        }
      ],
      "name": "setLiquidationThreshold",
      "outputs": [],
      "stateMutability": "nonpayable",
      "type": "function"
    },
    {
      "inputs": [
        {
          "internalType": "uint256",
          "name": "_maxLTV",
          "type": "uint256"
        }
      ],
      "name": "setMaxLTV",
      "outputs": [],
      "stateMutability": "nonpayable",
      "type": "function"
    },
    {
      "inputs": [
        {
          "internalType": "uint256",
          "name": "_maxMarketDebt",
          "type": "uint256"
        }
      ],
      "name": "setMaxMarketDebt",
      "outputs": [],
      "stateMutability": "nonpayable",
      "type": "function"
    },
    {
      "inputs": [
        {
          "internalType": "uint256",
          "name": "_minimumLoan",
          "type": "uint256"
        }
      ],
      "name": "setMinimumLoan",
      "outputs": [],
      "stateMutability": "nonpayable",
      "type": "function"
    },
    {
      "inputs": [],
      "name": "tgUSD",
      "outputs": [
        {
          "internalType": "contract ITgUSD",
          "name": "",
          "type": "address"
        }
      ],
      "stateMutability": "view",
      "type": "function"
    },
    {
      "inputs": [],
      "name": "totalDebt",
      "outputs": [
        {
          "internalType": "uint256",
          "name": "",
          "type": "uint256"
        }
      ],
      "stateMutability": "view",
      "type": "function"
    },
    {
      "inputs": [
        {
          "internalType": "address",
          "name": "newOwner",
          "type": "address"
        }
      ],
      "name": "transferOwnership",
      "outputs": [],
      "stateMutability": "nonpayable",
      "type": "function"
    },
    {
      "inputs": [
        {
          "internalType": "uint256",
          "name": "lpToWithdraw",
          "type": "uint256"
        }
      ],
      "name": "withdraw",
      "outputs": [],
      "stateMutability": "nonpayable",
      "type": "function"
    },
    {
      "inputs": [
        {
          "internalType": "uint256",
          "name": "lpToWithdraw",
          "type": "uint256"
        },
        {
          "internalType": "uint256",
          "name": "debtRepay",
          "type": "uint256"
        },
        {
          "internalType": "address",
          "name": "callerZapper",
          "type": "address"
        }
      ],
      "name": "withdrawAndRepay",
      "outputs": [],
      "stateMutability": "nonpayable",
      "type": "function"
    }
  ],
  "bytecode": "0x608060405234801561000f575f5ffd5b50604051611b0c380380611b0c83398101604081905261002e916101d4565b8181816001600160a01b03811661005e57604051631e4fbdf760e01b81525f600482015260240160405180910390fd5b61006781610129565b508051600280546001600160a01b03199081166001600160a01b03938416179091556020830151600f8054831691841691909117905560408301516001805483169184169190911790556060830151600a805483169184169190911781556080840151600b8054909316931692909217905560a0820151600c5560c0820151600d5560e082015160075561010082015160085561010d90670de0b6b3a76400009061029c565b6005555050426006555050670de0b6b3a76400006003556102c5565b5f80546001600160a01b038381166001600160a01b0319831681178455604051919092169283917f8be0079c531659141344cd1fd0a4f28419497f9722a3daafe3b4186f6b6457e09190a35050565b6001600160a01b038116811461018c575f5ffd5b50565b60405161012081016001600160401b03811182821017156101be57634e487b7160e01b5f52604160045260245ffd5b60405290565b80516101cf81610178565b919050565b5f5f8284036101408112156101e7575f5ffd5b83516101f281610178565b9250610120601f1982011215610206575f5ffd5b5061020f61018f565b61021b602085016101c4565b8152610229604085016101c4565b602082015261023a606085016101c4565b604082015261024b608085016101c4565b606082015261025c60a085016101c4565b608082015260c08481015160a083015260e08086015191830191909152610100808601519183019190915261012090940151938101939093525092909150565b80820281158282048414176102bf57634e487b7160e01b5f52601160045260245ffd5b92915050565b61183a806102d25f395ff3fe608060405234801561000f575f5ffd5b506004361061023f575f3560e01c80635c57f6d811610135578063bb8c631f116100b4578063ee84bc5611610079578063ee84bc56146104b4578063f2fde38b146104bd578063f384bd05146104d0578063fa0a38bb146104d9578063fc7b9c18146104ec575f5ffd5b8063bb8c631f1461045f578063c3d5f5e614610468578063d0b0c8161461047b578063e82c8d0b1461048e578063ee04ba14146104a1575f5ffd5b8063918f8674116100fa578063918f86741461041357806394ee08271461041d578063964db90c14610430578063a043d6d714610443578063ab60577a14610456575f5ffd5b80635c57f6d8146103cc5780635ceae9c4146103d5578063715018a6146103e85780637ace2f47146103f05780638da5cb5b14610403575f5ffd5b80633edd1128116101c1578063497b259911610186578063497b2599146103655780634b8a35291461038457806353696eb814610397578063552033c4146103aa5780635a4fb98f146103b9575f5ffd5b80633edd11281461031b5780634031234c1461032e57806345d9bb491461033757806348856b681461033f5780634914c00814610352575f5ffd5b806322a3fd921161020757806322a3fd92146102b657806329bc969d146102cd5780632e1a7d4d146102ec5780633037ffeb146102ff5780633d07b17614610308575f5ffd5b8063056dfaff14610243578063062d8bc71461024d57806308a0c375146102605780630975bb7e146102735780631a186127146102a3575b5f5ffd5b61024b6104f4565b005b61024b61025b3660046115c3565b61051a565b61024b61026e3660046115c3565b610527565b600f54610286906001600160a01b031681565b6040516001600160a01b0390911681526020015b60405180910390f35b61024b6102b13660046115ee565b610534565b6102bf60065481565b60405190815260200161029a565b6102bf6102db3660046115ee565b600e6020525f908152604090205481565b61024b6102fa3660046115c3565b61055e565b6102bf60055481565b600b54610286906001600160a01b031681565b61024b610329366004611616565b610574565b6102bf600d5481565b6102bf6105a0565b61024b61034d366004611655565b6105dc565b61024b610360366004611680565b610670565b6102bf6103733660046115ee565b60096020525f908152604090205481565b61024b6103923660046116b4565b61083a565b6102bf6103a53660046115ee565b61086c565b6102bf670de0b6b3a764000081565b61024b6103c73660046116de565b61087c565b6102bf60075481565b61024b6103e3366004611680565b6108a9565b61024b61094b565b6102bf6103fe3660046115ee565b61095e565b5f546001600160a01b0316610286565b6102bf620186a081565b600a54610286906001600160a01b031681565b6102bf61043e3660046115ee565b610988565b600154610286906001600160a01b031681565b6102bf60085481565b6102bf60035481565b61024b6104763660046115c3565b6109e1565b61024b6104893660046115c3565b6109ee565b600254610286906001600160a01b031681565b61024b6104af3660046115ee565b6109fb565b6102bf60045481565b61024b6104cb3660046115ee565b610b1a565b6102bf600c5481565b6102bf6104e73660046115ee565b610b59565b6102bf610b8c565b5f5f6104fe610baa565b91509150610516828260039190915542600655600455565b5050565b610522610ce2565b600755565b61052f610ce2565b600c55565b61053c610ce2565b600b80546001600160a01b0319166001600160a01b0392909216919091179055565b61056781610d0e565b6105713382610d3f565b50565b5f5f610581858585610db4565b9150915061058f8583610ded565b6105998185610e25565b5050505050565b5f670de0b6b3a76400006105c0600654426105bb9190611739565b610ecd565b6004546105cd919061174c565b6105d79190611777565b905090565b600f5460405163236469cd60e21b81523360048201525f916001600160a01b031690638d91a734906024016020604051808303815f875af1158015610623573d5f5f3e3d5ffd5b505050506040513d601f19601f82011682018060405250810190610647919061178a565b6106515733610653565b815b9050610660848483610ef0565b61066a8185610d3f565b50505050565b5f5f61067a610baa565b6001600160a01b0387165f908152600e60205260408120549294509092506106a28785610f1a565b9050670de0b6b3a76400006106b78284610f46565b106106d557604051631bad36df60e01b815260040160405180910390fd5b5f5f5f8389106106ea5783985084905061073c565b836106f58a8761174c565b6106ff9190611777565b905061070b8186611739565b91506107178985611739565b925060085483101561073c57604051633c1c872160e01b815260040160405180910390fd5b6107528a83858a61074d8e8c611739565b610f93565b6107716001600160a01b038916610769573361076b565b885b82610d3f565b6001600160a01b038816156107cf57876001600160a01b03166328a070256040518163ffffffff1660e01b81526004015f604051808303815f87803b1580156107b8575f5ffd5b505af11580156107ca573d5f5f3e3d5ffd5b505050505b60025460405163079cc67960e41b8152336004820152602481018b90526001600160a01b03909116906379cc6790906044015f604051808303815f87803b158015610818575f5ffd5b505af115801561082a573d5f5f3e3d5ffd5b5050505050505050505050505050565b335f908152600e60205260408120548190819061085a9086908690610fb9565b925092509250610599338484846110ef565b5f6108768261112e565b92915050565b5f5f610889868685610db4565b915091506108978285611149565b6108a18186610e25565b505050505050565b600f5460405163236469cd60e21b81523360048201525f916001600160a01b031690638d91a734906024016020604051808303815f875af11580156108f0573d5f5f3e3d5ffd5b505050506040513d601f19601f82011682018060405250810190610914919061178a565b61091e5733610920565b815b90505f5f5f6109308787866111a6565b925092509250610942878484846110ef565b50505050505050565b610953610ce2565b61095c5f6112c3565b565b5f61087661096b83610b59565b6001600160a01b0384165f908152600e6020526040902054610f46565b600d546001600160a01b0382165f908152600e602052604081205490916109ae9161174c565b620186a06109bb84610b59565b6109c5919061174c565b6109d790670de0b6b3a764000061174c565b6108769190611777565b6109e9610ce2565b600855565b6109f6610ce2565b600d55565b5f5f610a05610baa565b335f818152600e6020526040812054939550919350610a249085610f1a565b9050610a37335f808761074d8689611739565b610a566001600160a01b038616610a4e5733610a50565b855b83610d3f565b6001600160a01b03851615610ab457846001600160a01b03166328a070256040518163ffffffff1660e01b81526004015f604051808303815f87803b158015610a9d575f5ffd5b505af1158015610aaf573d5f5f3e3d5ffd5b505050505b60025460405163079cc67960e41b8152336004820152602481018390526001600160a01b03909116906379cc6790906044015f604051808303815f87803b158015610afd575f5ffd5b505af1158015610b0f573d5f5f3e3d5ffd5b505050505050505050565b610b22610ce2565b6001600160a01b038116610b5057604051631e4fbdf760e01b81525f60048201526024015b60405180910390fd5b610571816112c3565b5f5f610b6c600654426105bb9190611739565b600354610b7991906117a5565b9050610b858382610f1a565b9392505050565b6004545f90610b9a81611312565b610ba490826117a5565b91505090565b5f5f5f60065442610bbb9190611739565b600454600354919250908215610c6c575f610bd584610ecd565b9050610be181836117a5565b91505f670de0b6b3a7640000610bf7838661174c565b610c019190611777565b600254604051637ef3999160e01b8152600481018390529192506001600160a01b031690637ef39991906024015f604051808303815f87803b158015610c45575f5ffd5b505af1158015610c57573d5f5f3e3d5ffd5b505050508084610c6791906117a5565b935050505b6001546040516302e712dd60e01b81523060048201526001600160a01b03909116906302e712dd90602401602060405180830381865afa158015610cb2573d5f5f3e3d5ffd5b505050506040513d601f19601f82011682018060405250810190610cd691906117b8565b60055594909350915050565b5f546001600160a01b0316331461095c5760405163118cdaa760e01b8152336004820152602401610b47565b5f5f610d18610baa565b91509150610d3a33610d3385610d2e3387610f1a565b611337565b848461139d565b505050565b600a5460405163a9059cbb60e01b81526001600160a01b038481166004830152602482018490529091169063a9059cbb906044015b6020604051808303815f875af1158015610d90573d5f5f3e3d5ffd5b505050506040513d601f19601f82011682018060405250810190610d3a919061178a565b5f5f835f03610dd657604051635b41c2f160e01b815260040160405180910390fd5b5050600a5491936001600160a01b03909216925050565b5f5f610df7610baa565b6001600160a01b0386165f908152600e6020526040902054919350915061066a908590610d339086906117a5565b600f5460405163236469cd60e21b81523360048201526001600160a01b0390911690638d91a734906024016020604051808303815f875af1158015610e6c573d5f5f3e3d5ffd5b505050506040513d601f19601f82011682018060405250810190610e90919061178a565b610516576040516323b872dd60e01b8152336004820152306024820152604481018290526001600160a01b038316906323b872dd90606401610d74565b6005545f908015610ee857610b85818463bbf81e005f6113ca565b505f92915050565b5f5f5f610efe8486866111a6565b9250925092506108a184610f128886611337565b858585610f93565b6001600160a01b0382165f90815260096020526040812054610b859083670de0b6b3a7640000846113ca565b5f8215610f8a57610f5a620186a08461174c565b600d54610f65611419565b610f6f908561174c565b610f79919061174c565b610f839190611777565b9050610876565b505f1992915050565b6001600160a01b0385165f908152600e60205260409020849055610599858484846110ef565b5f5f5f845f03610fdc5760405163cba9a5fd60e01b815260040160405180910390fd5b5f5f610fe6610baa565b9092509050610ff587826117a5565b90505f876110033385610f1a565b61100d91906117a5565b9050600754821115611032576040516322ab3c5760e01b815260040160405180910390fd5b60085481101561105557604051633c1c872160e01b815260040160405180910390fd5b8061105f88611484565b101561107e57604051634128fcab60e01b815260040160405180910390fd5b6002546040516340c10f1960e01b81526001600160a01b038b81166004830152602482018b9052909116906340c10f19906044015f604051808303815f87803b1580156110c9575f5ffd5b505af11580156110db573d5f5f3e3d5ffd5b50929b949a50929850929650505050505050565b61110383670de0b6b3a7640000845f6113ca565b6001600160a01b0385165f90815260096020526040902055600382905542600655600481905561066a565b5f620186a061113c83611492565b600c546109d7919061174c565b815f0361116957604051635b41c2f160e01b815260040160405180910390fd5b335f908152600e60205260408120546111839084906117a5565b90505f5f5f611193338686610fb9565b9250925092506108a13385858585610f93565b5f5f5f845f036111c95760405163cba9a5fd60e01b815260040160405180910390fd5b5f5f6111d3610baa565b915091505f6111e28984610f1a565b9050805f0361120457604051634c30458760e11b815260040160405180910390fd5b8088106112135796505f611242565b61121d8882611739565b905060085481101561124257604051633c1c872160e01b815260040160405180910390fd5b60025460405163079cc67960e41b81526001600160a01b038981166004830152602482018b9052909116906379cc6790906044015f604051808303815f87803b15801561128d575f5ffd5b505af115801561129f573d5f5f3e3d5ffd5b50505050808389846112b19190611739565b95509550955050505093509350939050565b5f80546001600160a01b038381166001600160a01b0319831681178455604051919092169283917f8be0079c531659141344cd1fd0a4f28419497f9722a3daafe3b4186f6b6457e09190a35050565b5f670de0b6b3a764000061132d600654426105bb9190611739565b6109d7908461174c565b5f825f0361135857604051635b41c2f160e01b815260040160405180910390fd5b335f908152600e6020526040812054611372908590611739565b90508261137e82611484565b1015610b8557604051634128fcab60e01b815260040160405180910390fd5b6001600160a01b0384165f908152600e60205260409020839055600382905542600655600481905561066a565b5f5f6113d78686866114c6565b90506113e283611585565b80156113fd57505f84806113f8576113f8611763565b868809115b156114105761140d6001826117a5565b90505b95945050505050565b600b54604080516350d25bcd60e01b815290515f926001600160a01b0316916350d25bcd9160048083019260209291908290030181865afa158015611460573d5f5f3e3d5ffd5b505050506040513d601f19601f820116820180604052508101906105d791906117b8565b5f620186a061113c836115b1565b5f670de0b6b3a76400006114a4611419565b6001600160a01b0384165f908152600e60205260409020546109d7919061174c565b5f838302815f1985870982811083820303915050805f036114fa578382816114f0576114f0611763565b0492505050610b85565b80841161151a5760405163227bc15360e01b815260040160405180910390fd5b5f848688095f868103871696879004966002600389028118808a02820302808a02820302808a02820302808a02820302808a02820302808a02909103029181900381900460010186841190950394909402919094039290920491909117919091029150509392505050565b5f600282600381111561159a5761159a6117cf565b6115a491906117e3565b60ff166001149050919050565b5f670de0b6b3a764000061132d611419565b5f602082840312156115d3575f5ffd5b5035919050565b6001600160a01b0381168114610571575f5ffd5b5f602082840312156115fe575f5ffd5b8135610b85816115da565b8015158114610571575f5ffd5b5f5f5f60608486031215611628575f5ffd5b8335611633816115da565b925060208401359150604084013561164a81611609565b809150509250925092565b5f5f5f60608486031215611667575f5ffd5b8335925060208401359150604084013561164a816115da565b5f5f5f60608486031215611692575f5ffd5b833561169d816115da565b925060208401359150604084013561164a816115da565b5f5f604083850312156116c5575f5ffd5b82356116d0816115da565b946020939093013593505050565b5f5f5f5f608085870312156116f1575f5ffd5b84356116fc816115da565b93506020850135925060408501359150606085013561171a81611609565b939692955090935050565b634e487b7160e01b5f52601160045260245ffd5b8181038181111561087657610876611725565b808202811582820484141761087657610876611725565b634e487b7160e01b5f52601260045260245ffd5b5f8261178557611785611763565b500490565b5f6020828403121561179a575f5ffd5b8151610b8581611609565b8082018082111561087657610876611725565b5f602082840312156117c8575f5ffd5b5051919050565b634e487b7160e01b5f52602160045260245ffd5b5f60ff8316806117f5576117f5611763565b8060ff8416069150509291505056fea2646970667358221220c1e0489c0fe6020a457e8abaebb4ffd1ca0593b7af37dd93bf1b171bd4ffcd1c64736f6c634300081c0033",
  "linkReferences": {},
  "deployedLinkReferences": {}
}